:030000000209E50D
:0C09E500787FE4F6D8FD75810E0209B59C
:1009B500E4F508AF080508EF6432700BF5087FA46D
:1009C5001209918E098F0AAF0AAE0912080080E359
:10094700C2A7E4FEEEC39408748094805016EFC4E7
:10095700131313540124FF92A5C2A7D2A7EF25E0D2
:04096700FF0E80E01F
:01096B002269
:10096C00E4FFFEC2A7FDEDC3940C74809480501478
:10097C00EF25E0FFEE33FED2A7C2A7A2A4E43342D8
:04098C00070D80E2F1
:010990002244
:10099100C2A6C2A7120947E4FFEFC394067480946C
:1009A1008050030F80F3D2A70000C2A700001209F4
:0309B1006CD2A65F
:0109B4002220
:1009D5003F065B4F666D7D077F6F777C395E79716A
:0B09F100EF1FAC0670011E4C70F622D8
:04080000AB07AA0692
:100804007C037DE81208F274D52FF58274093EF555
:1008140083E493F50B7C037DE8AF03AE021208F288
:100824007E007F64CFCDCFCECCCE1208F274D52F0C
:10083400F58274093EF583E493F50C7C037DE8AFFF
:1008440003AE021208F27E007F64CFCDCFCECCCEB1
:100854001208F27E007F0ACFCDCFCECCCE1208F2A2
:1008640074D52FF58274093EF583E493F50DAE0239
:10087400AF037C037DE81208F27E007F64CFCDCF06
:10088400CECCCE1208F27E007F0ACFCDCFCECCCE16
:100894001208F274D52DF58274093CF583E493F5BE
:1008A4000EE4FDEDC39404748094805040ED146014
:1008B4001214601714601C2403701EC292C291C2E9
:1008C400908016C292C291D290800EC292D291C2EE
:1008D400908006C292D291D290740B2DF8E6F580E6
:0D08E4007F647E001209F1E4F5800D80B6FE
:0108F10022E4
:1008F200BC000BBE0029EF8DF084FFADF022E4CCEA
:10090200F875F008EF2FFFEE33FEEC33FCEE9DECB2
:10091200984005FCEE9DFE0FD5F0E9E4CEFD22EDF8
:10092200F8F5F0EE8420D21CFEADF075F008EF2F42
:10093200FFED33FD4007985006D5F0F222C398FD33
:050942000FD5F0EA22D0
:00000001FF
