:030000000208D023
:0C08D000787FE4F6D8FD7581080208402E
:10080000C2A58F807F017E00120811D2A77F017ED2
:0108100000E7
:10081100D3EF9400EE940040257DC7EDD39400748E
:1008210080948040127C01ECD394007480948040C9
:0E083100031C80F31D80E4EF1F70D51E80D2E3
:01083F002296
:0A08DC00C2A7C2A6120800C2A7229C
:0A08E600C2A7D2A6120800C2A72282
:1008BC007F381208DC7F0C1208DC7F011208DC7F09
:0408CC00060208DC3C
:02087500AE07CC
:10087700ED7006EE2480FA8004EE24C0FAAF02126F
:0708870008DCAF030208E6E4
:0A08F000706F6B6561692E636E0086
:100840001208BCE4F5087BFF7A0879F01208A7C308
:10085000E5089FE49E501CE5082403FFE508900886
:10086000F093FBE4FD1208757F327E00120811053B
:050870000880D380FEAA
:1008A700E4FFFE12088E600C0FEF70010E09E9706D
:0508B700F20A80EF22AF
:10088E00BB010689828A83E0225002E722BBFE0268
:09089E00E32289828A83E493229B
:00000001FF
