:03000000020800F3
:0C080000787FE4F6D8FD75810A020847F5
:100963003F065B4F666D7D077F6F777C395E7971DC
:03097300010A0076
:10093F007D177C00120951EF1FAC0670011E4C7021
:01094F00F6B1
:010950002284
:10091700C292C291C29074632FF58274093EF58327
:05092700E493F58022BD
:1008FC0020A0177F057E0012093F20A00A050AE5FB
:0B090C000A64107002F50A30A0FD2202
:10088C00E4F50975A00FAFA0EF640F60607F057EE3
:10089C000012093FAFA0EF640F605275A00FAFA01C
:1008AC00EF24F5601024FE601114601324077012FD
:1008BC00750801800D7508028008750803800375A2
:1008CC00080475A0F0AFA0EF2450600C24E0600C7D
:1008DC0024F0600C2470800E74048006740880026E
:0F08EC00740C2508F508AFA0EF64F070F9AF08A1
:0108FB0022DA
:10092C00E4F58012088CEF24FFFFE434FFFE12097B
:03093C001780F031
:10080C0002092CE493A3F8E493A34003F68001F2CD
:10081C0008DFF48029E493A3F85407240CC8C333ED
:10082C00C4540F4420C8834004F456800146F6DFBC
:10083C00E4800B0102040810204080900973E47ED0
:10084C00019360BCA3FF543F30E509541FFEE493B1
:10085C00A360010ECF54C025E060A840B8E493A378
:10086C00FAE493A3F8E493A3C8C582C8CAC583CAA3
:10087C00F0A3C8C582C8CAC583CADFE9DEE780BE5B
:010976000080
:10095100EF8DF0A4A8F0CF8CF0A428CE8DF0A42EBA
:02096100FE2274
:00000001FF
