:03000000020800F3
:0C080000787FE4F6D8FD758108020847F7
:1008F1003F065B4F666D7D077F6F777C395E79714F
:03090600010800E5
:1008BD007D177C001208CFEF1FAC0670011E4C7027
:0108CD00F634
:0108CE002207
:10088C00E4FBEBC3940A74809480500CB2957F0AFD
:08089C007E001208BD0B80EA8A
:0108A4002231
:03090A00C2952271
:1008E100758901758C3C758AB0D28CD2A9D2AF22A0
:050901001208E180FE78
:03000B000208A543
:1008A500C0E0758C3C758AB00508E50864027005E2
:0808B500F5086380FFD0E0327A
:10080C00020901E493A3F8E493A34003F68001F2F8
:10081C0008DFF48029E493A3F85407240CC8C333ED
:10082C00C4540F4420C8834004F456800146F6DFBC
:10083C00E4800B0102040810204080900906E47E3D
:10084C00019360BCA3FF543F30E509541FFEE493B1
:10085C00A360010ECF54C025E060A840B8E493A378
:10086C00FAE493A3F8E493A3C8C582C8CAC583CAA3
:10087C00F0A3C8C582C8CAC583CADFE9DEE780BE5B
:0109090000ED
:1008CF00EF8DF0A4A8F0CF8CF0A428CE8DF0A42E3D
:0208DF00FE22F7
:00000001FF
