:03000000020800F3
:0C080000787FE4F6D8FD758113020847EC
:100AB9003F065B4F666D7D077F6F777C395E797185
:040AC9007679383FC3
:0C0ACD0004080000031F010C00011100D0
:0A0A6800C2A0A393F5807F057E0075
:100A72007D177C00120916EF1FAC0670011E4C7028
:010A8200F67D
:010A83002250
:04099300AB07AA06FE
:100997007C007D0A1209288D127C007D0AAF03AE08
:1009A700021209287C007D0A1209288D13AE02AFB6
:1009B700037C007D64120928C2A2C2A1C2A0EF90E5
:1009C7000AB9120A6BE4F580D2A0E513120A6BE4A8
:0E09D700F580D2A1C2A0E512120A6BE4F580F1
:0109E50022EF
:100A3500C2A2C2A1C2A0900AC9E4120A6BE4F58061
:100A4500D2A0120A6AE4F580D2A1120A68E4F58000
:100A5500D2A0120A6BE4F580D2A2C2A1120A68E400
:030A6500F58022F7
:100A9F00758911758C3C758AAF758D3C758BAFD28E
:0A0AAF00AFD2A9D2ABD28CD28E22B6
:03000B000209E601
:1009E600C0E0C0D075D000C000C007758C3C758AC9
:1009F600AF050DE50C7019E50D640A7029F50DAF0C
:100A0600107801EF08800123D8FDF510F5B08016A7
:100A1600E50D5403700363B0FFE50D643C7007F504
:0F0A2600B0C28C751101D007D000D0D0D0E03213
:03001B0002088C4C
:10088C00C0E0C0F0C083C082C0D075D000C000C032
:10089C0001C002C003C004C005C006C007758D3C72
:1008AC00758BAF050EE50E64027044F50E74FF25D2
:1008BC000BF50BE50A34FFF50AE50934FFF509E5FC
:1008CC000834FFF508E47F077E03FDFCAB0BAA0A96
:1008DC00A909A808D312097D5015C28C75B00075F2
:1008EC000C01C28E750D00758C3C758AAFD28CD004
:1008FC0007D006D005D004D003D002D001D000D050
:0A090C00D0D082D083D0F0D0E032CA
:100A84007510018510B0120A9FE5117009AE0AAF06
:0B0A94000B12099380F3120A3580EE6C
:10080C00020A84E493A3F8E493A34003F68001F274
:10081C0008DFF48029E493A3F85407240CC8C333ED
:10082C00C4540F4420C8834004F456800146F6DFBC
:10083C00E4800B0102040810204080900ACDE47E75
:10084C00019360BCA3FF543F30E509541FFEE493B1
:10085C00A360010ECF54C025E060A840B8E493A378
:10086C00FAE493A3F8E493A3C8C582C8CAC583CAA3
:10087C00F0A3C8C582C8CAC583CADFE9DEE780BE5B
:010AD900001C
:10091600EF8DF0A4A8F0CF8CF0A428CE8DF0A42EF5
:02092600FE22AF
:10092800BC000BBE0029EF8DF084FFADF022E4CCB3
:10093800F875F008EF2FFFEE33FEEC33FCEE9DEC7C
:10094800984005FCEE9DFE0FD5F0E9E4CEFD22EDC2
:10095800F8F5F0EE8420D21CFEADF075F008EF2F0C
:10096800FFED33FD4007985006D5F0F222C398FDFD
:050978000FD5F0EA229A
:10097D00EB9FF5F0EA9E42F0E99D42F0EC6480C8F1
:06098D0064809845F02291
:00000001FF
